:1006AE00C0E0C001C0008E018F00E500600612069A
:1006BE00D9D500FAE501600C7500001206D9D500F7
:1006CE00FAD501F4D000D001D0E022120761120752
:1006DE004E12074E12073512072712072712070E62
:1006EE0000002200000000220000000000000000B8
:1006FE0000000000000000000000000000000022CA
:10070E00C007750707D507FDD0070022C00775077C
:10071E0012D507FDD007000022C007750728D507A0
:10072E00FDD00700000022C00775076BD507FDD06E
:10073E00070022C0077507DAD507FDD00700002293
:10074E00C0077507FFD507FD7507B9D507FDD0079B
:0D075E0000002212074E12074E1207412222
:030000000209F8FA
:0C09F800787FE4F6D8FD7581B0020A3F5C
:100D8200EFC4540FFEEF540FFFEED3940974809416
:100D920080EE50062430F52E80042437F52EEFD352
:100DA200940974809480EF50052430F52F22243763
:020DB200F52F1B
:010DB400221C
:10000E00EFD3940974809480EF50042430FF22249F
:03001E0037FF2287
:100E4900EFC39441748094804006EF24C9FF800465
:100E590074D02FFFEDC39441748094804006ED2433
:0F0E6900C9FD800474D02DFDEFC454F02DFF227D
:100BD600E4FD7C047832E4F608DCFCE4FCFDD3EFAB
:100BE6009400EE9400401FEF540FFB74322DF8A6CC
:100BF60003EEC4F854F0C868FEEFC4540F48FF0D66
:100C0600BD00010C80D8E4FCFD74322DF8E6FF121D
:100C1600000E742E2DF8A6070DBD00010CED640420
:030C26004C70E629
:010C290022A8
:100EA700AD2FAF2E120E49AB077A00AD31AF30121E
:0E0EB7000E49AD077C00EBFEE42DFFEC3EFE85
:010EC500220A
:100E1900022100000223000102290000022C000027
:100E290002270000022500000A9D7E42ECE6D2B6A8
:070E39009E62FEF2012B0096
:100DB500C2B2758921758DF4758BF4758CF7758ABA
:100DC500867D017C007F017E00120D0F7521007567
:100DD5002205D2A9D28C759850D2ACD2BCD2BBD246
:020DE5008E225C
:100C2A00E4FBFAF582F5837836E6FFC3E5829F7422
:100C3A0080F86583985021AF8274382FF8E6FD3327
:100C4A0095E0FCE5822401FFE43583FE12076BEF91
:100C5A002BFBEE3AFAA380CFAE02AF037C007D13E2
:0E0C6A0012076B7C037DF112077DAE04AF050F
:010C78002259
:03000B0002081ECA
:10081E00C0E0C0F0C083C082C0D075D000C000C0A0
:0D082E0001C002C003C004C005C006C00721
:10083B00750A00750B00E4FFFE120C797E00758CB7
:10084B00F7758A86D3E5249400E523648094805061
:10085B0004D2B78007EE4F24FFB392B7C3E52495BC
:10086B0022E5216480F8E523648098400CE522247E
:10087B00FBF524E52134FFF5230524E5247002055F
:10088B0023052AE52A70020529B4F40DE529B401E4
:0D089B0008752900752A00B293C28DD28C19
:1008A800D007D006D005D004D003D002D001D000A4
:0B08B800D0D0D082D083D0F0D0E0324E
:030023000205E3F0
:1005E300C0E0C0F0C083C082C0D075D000C000C0DE
:0D05F30001C002C003C004C005C006C0075F
:10060000750C00309924C29920B203020693783702
:10061000E6FFC3783696500EC29B74382FF8E6F585
:1006200099783706806DC2B2806230986620B261D8
:10063000E52B6401705B85990CC298E50C605478D9
:1006400036E6700FE50C643A7049E6062438F8A6E1
:100650000C80407836E6062438F8A60C7836E6FF9B
:10066000C3940974809480401C74372FF8E6640AA0
:1006700070137836E62436F8E6640D7008F52B1210
:1006800008C3752B017836E6643C7007120F0280B0
:0306900002C2980B
:10069300D007D006D005D004D003D002D001D000BB
:0B06A300D0D0D082D083D0F0D0E03265
:100B0600E4FFFE120EC68E088F097F017E00120ECC
:100B1600C6AB07AA06C3E508648094804019D3E5EE
:100B2600099409E50864809480500C749D2509F8A1
:100B3600E6F5A0C2A08026C3E5099414E508648002
:100B460094805019AE08AF097C007D0A12077D8C8F
:100B5600088D09749D2509F8E6F5A0D2A0C3EA64BC
:100B6600809480400FD3EB9405EA6480948050040F
:040B76008A218B2223
:010B7A002258
:100E7800120DB57D01E4FFFE1209617D017C00E4DD
:100E8800FFFE120D0FD2B7D293C2B2752B01120F0B
:0F0E980002D2AF120B067FE87E031206AE80F483
:080E4000013600013700C1007A
:1008C300E4F50DF50EF50F7836E6C39409748094BC
:1008D300805002804478361616E6FE2436F8E6FF8A
:1008E30074372EF8E6FD120E498F0F78361616125E
:1008F3000D4E8F0EE50E650F6002801D7839E6FF01
:1009030008E6FD120E498F0D7E00EF7004D20080C1
:100913000BC200EF64054E6003020F02783BE6FF53
:1009230008E6FD120E498F0EE50E24FE601A1460D0
:100933001A14601A14601A14601A24F760191460E8
:1009430019240F701802015B02025302043F0205CF
:0D09530011020A84020B7B02002612034BE6
:010960002274
:070DE700783DA62E08A62F9F
:100DEE00120D4E120D827836E6062438F8A62E78AD
:100DFE0036E6062438F8A62F7836E6062438F87636
:0B0E0E000D7836E6062438F8760A223C
:100F0200E4FF7836F608F6EFC3943C748094805080
:0A0F12000974382FF8E4F60F80EDA3
:010F1C0022B2
:100F1D00300007C2B2C200020F02D2B2783776019A
:090F2D00C299C29B08E6F5992265
:100D4E00E4F51EF51F751F01E51FC3783696501C7E
:100D5E007438251FF8E6FF7439251FF8E6FD120ECC
:100D6E0049EF251EF51E051F051F80DC631EFFE5DE
:030D7E001E04FF51
:010D8100224F
:10015B00E4F510F511F512F513F514F515F516F583
:10016B0017F518F519F51A78367607F514F515AF56
:10017B0015743D2FF8E6FE742E2FF8A6060515E52F
:10018B0015700205146404451470E4120EA78E104A
:10019B008F11E4F514F515AF1574412FF8E6FE74C5
:1001AB002E2FF8A6060515E51570020514640445F7
:1001BB001470E4120EA78E128F13E5112513F51789
:1001CB00E5103512F516851014851115C3E5159537
:1001DB0017E51495165066E4F519F518C3E519944F
:1001EB00087480948050307E00E5152519FFEE359C
:0B01FB0014FEC3EF9517EE9516501C84
:10020600120C798F1BEF6401700EAF19A807040852
:0A0216008002C333D8FC421805191A
:1002200080C5AF18120D827836E6062438F8A62E5F
:100230007836E6062438F8A62F051A74082515F531
:1002400015E43514F514808FAF1A120D82120DE7E4
:03025000020F1D7D
:10025300E4F510F511F512F513F514F515F516F58A
:1002630017F518F519F51A78367607F514F515AF5D
:1002730015743D2FF8E6FE742E2FF8A6060515E536
:1002830015700205146404451470E4120EA78E1051
:100293008F11E4F514F515AF1574412FF8E6FE74CC
:1002A3002E2FF8A6060515E51570020514640445FE
:1002B3001470E4120EA78E128F13E5112513F51790
:1002C300E5103512F516851014851115C3E515953E
:1002D30017E51495165066E4F519F518C3E5199456
:1002E300087480948050307E00E5152519FFEE35A3
:0B02F30014FEC3EF9517EE9516501C8B
:1002FE00120CC48F1BEF6401700EAF19A80704080F
:0A030E008002C333D8FC4218051921
:1003180080C5AF18120D827836E6062438F8A62E66
:100328007836E6062438F8A62F051A74082515F538
:1003380015E43514F514808FAF1A120D82120DE7EB
:03034800020F1D84
:10043F00E4F510F511F512F513F514F515F516F59C
:10044F0017F518F519F51A78367607F514F515AF6F
:10045F0015743D2FF8E6FE742E2FF8A6060515E548
:10046F0015700205146404451470E4120EA78E1063
:10047F008F11E4F514F515AF1574412FF8E6FE74DE
:10048F002E2FF8A6060515E5157002051464044510
:10049F001470E4120EA78E128F13E5112513F517A2
:1004AF00E5103512F516851014851115C3E5159550
:1004BF0017E51495165040AF15AE14120EC68E18D0
:1004CF008F19120BD67836E6062438F8A63178360F
:1004DF00E6062438F8A6307836E6062438F8A62F34
:1004EF007836E6062438F8A62E051A051A0515E5FE
:1004FF001570B9051480B5AF1A120D82120DE702EF
:02050F000F1DBE
:10051100E4F510F511F512F513F514F515F516F5C9
:1005210017F518F519F51A78367607F514F515AF9C
:1005310015743D2FF8E6FE742E2FF8A6060515E575
:1005410015700205146404451470E4120EA78E1090
:100551008F11E4F514F515AF1574412FF8E6FE740B
:100561002E2FF8A6060515E515700205146404453D
:100571001470E4120EA78E128F13E5112513F517CF
:10058100E5103512F516851014851115C3E515957D
:1005910017E51495165040AF15AE14120EE48E18DF
:1005A1008F19120BD67836E6062438F8A63178363C
:1005B100E6062438F8A6307836E6062438F8A62F61
:1005C1007836E6062438F8A62E051A051A0515E52B
:1005D1001570B9051480B5AF1A120D82120DE7021C
:0205E1000F1DEC
:100A8400E4F510F511F512F513FFFE743D2FF8E6A9
:100A9400FD742E2FF8A6050FBF00010EEF64044E5F
:100AA40070E9120EA78E108F11E4FEFF74412FF827
:100AB400E6FD742E2FF8A6050FBF00010EEF6404A7
:100AC4004E70E9120EA78E128F13E5134512600EB5
:100AD400E4FCFDFB7AFFF9F8C31207B3701AD3E5FF
:100AE400139400E512940040047D0180027D00AF60
:100AF40011AE101209618003020F02120DEE120FE3
:010B04001DD3
:010B050022CD
:100B7B00E4F510F511F512F513FFFE743D2FF8E6B1
:100B8B00FD742E2FF8A6050FBF00010EEF64044E67
:100B9B0070E9120EA78E108F11E4FEFF74412FF82F
:100BAB00E6FD742E2FF8A6050FBF00010EEF6404AF
:100BBB004E70E9120EA78E128F13AD13AC12AF113C
:0B0BCB00AE10120D0F120DEE020F1DF8
:10002600E4F510F511F512F513F514F515F516F5B9
:1000360017F518F519F51AF51BF51CF51DF514F548
:1000460015AF15743D2FF8E6FE742E2FF8A606059B
:1000560015E515700205146404451470E4120EA724
:100066008E108F11E4F514F515AF1574412FF8E6CF
:10007600FE742E2FF8A6060515E515700205146404
:1000860004451470E4120EA78E128F13E511251382
:10009600F517E5103512F5167845E6FF08E6FD1268
:1000A6000E498F1A7836760FE4789CF6F514F51516
:1000B600C3E515951AE514940050327836E6FE2409
:1000C60038F8E6FF74392EF8E6FD120E498F1878D7
:1000D600360606AF18789CE60625E02474F8760006
:1000E60008A6070515E51570C7051480C385101405
:1000F600851115C3E5159517E5149516504DC3E5FD
:10010600159511F51B131313541FF51CE51B540706
:10011600F51DE51C25E02475F9E7FFAE1DA806745C
:1001260001088002C333D8FC5FF519D394007480AC
:10013600948040047D0180027D00AF15AE14120943
:10014600610515E51570AC051480A87836760D1294
:050156000DEE020F1D7B
:10034B00E4F510F511F512F513F514F515F516F591
:10035B0017F518F519F51AF514F515AF15743D2F9A
:10036B00F8E6FE742E2FF8A6060515E515700205A6
:10037B00146404451470E4120EA78E108F11E4F56B
:10038B0014F515AF1574412FF8E6FE742E2FF8A651
:10039B00060515E515700205146404451470E41286
:1003AB000EA78E128F13E5112513F517E5103512D5
:1003BB00F5167845E6FF08E6FD120E497874A60798
:1003CB007836760F7874E6C313F6E4F514F51578E2
:1003DB0074E6FFC3E5159FE5149400504DE4F51A40
:1003EB00AF1AEF3395E0FEC3EF9404EE6480948074
:1003FB0050147836E6062438F8E6FF742E251AF8E2
:10040B00A607051A80DA120EA78E188F190511E5AB
:10041B0011700205101425E024A9F8A61808A619D6
:10042B000515E5157002051480A57836760D120DAD
:04043B00EE020F1DA1
:040C7900AD07AC0611
:100C7D00E4FFFBC3EC94004008ED9408EC940040B5
:100C8D00037F0022AE04ED7803CEC313CE13D8F943
:100C9D00FEED5407FBFFF87401088002C333D8FC46
:100CAD00FF74A72EF8EF56D39400748094804004FF
:060CBD007F0180027F00B0
:010CC300220E
:040961008E1E8F1F38
:10096500E4FFFCC3E51E940050030209F7E51F945C
:1009750008E51E9400507BAE1EE51F7803CEC31319
:10098500CE13D8F9FEE51F5407FCF8740108800260
:10099500C333D8FCFF74A72EF8E6F95FD39400742F
:1009A50080948040047F018002E4FFEF64017005BC
:1009B500ED6401603DEF7003ED6037EF7017ED6496
:1009C500017012A80404088002C333D8FCFB74A785
:1009D5002EF8EB49F6EF64017018ED7015AF04A819
:1009E5000704088002C333D8FCF4FF74A72EF8EF80
:0209F50056F6B4
:0109F70022DD
:100EC600C3EE94004008EF9402EE94004004E4FE62
:0E0ED600FF22EF25E024A9F8E6FE08E6FF2241
:100D0F008E148F158D828C83C3E5149400402FE5CC
:100D1F00159402E51494005025C3E5839400401EFA
:100D2F00AF82AE83E4FCFD7BFF7AFFF9F81207B3C5
:0F0D3F00400CE51525E024A9F8A68308A682221A
:040CC400AD07AC06C6
:100CC800E4FFFBC3EC94004008ED9408EC9400406A
:100CD800037F0022AE04ED7803CEC313CE13D8F9F8
:100CE800FEED5407FBFFF87401088002C333D8FCFB
:100CF800FF74A82EF8EF56D39400748094804004B3
:060D08007F0180027F0064
:010D0E0022C2
:100EE400C3EE94004008EF9402EE94004004E4FE44
:0E0EF400FF22EF25E024ADF8E6FE08E6FF221F
:100A0400020E78E493A3F8E493A34003F68001F282
:100A140008DFF48029E493A3F85407240CC8C333F3
:100A2400C4540F4420C8834004F456800146F6DFC2
:100A3400E4800B0102040810204080900E19E47E2B
:100A4400019360BCA3FF543F30E509541FFEE493B7
:100A5400A360010ECF54C025E060A840B8E493A37E
:100A6400FAE493A3F8E493A3C8C582C8CAC583CAA9
:100A7400F0A3C8C582C8CAC583CADFE9DEE780BE61
:010E480000A9
:10076B00EF8DF0A4A8F0CF8CF0A428CE8DF0A42EA2
:02077B00FE225C
:10077D00C2D5EC30E709B2D5E4C39DFDE49CFCEE97
:10078D0030E715B2D5E4C39FFFE49EFE1207C9C33F
:10079D00E49DFDE49CFC80031207C930D507C3E43A
:0607AD009FFFE49EFE2206
:1007B300EB9FF5F0EA9E42F0E99D42F0EC6480C8BD
:0607C30064809845F0225D
:1007C900BC000BBE0029EF8DF084FFADF022E4CC14
:1007D900F875F008EF2FFFEE33FEEC33FCEE9DECDD
:1007E900984005FCEE9DFE0FD5F0E9E4CEFD22ED23
:1007F900F8F5F0EE8420D21CFEADF075F008EF2F6D
:10080900FFED33FD4007985006D5F0F222C398FD5D
:050819000FD5F0EA22FA
:00000001FF
